:020000040800F2
:10000000A00A0020AD020008934C00082B44000811
:10001000914C0008610600086968000800000000B3
:100020000000000000000000000000005D5100081A
:100030006306000800000000954C0008815200088B
:10004000C7020008C7020008C7020008C70200086C
:10005000C7020008C7020008C7020008C70200085C
:10006000C7020008C7020008C7020008C70200084C
:10007000C7020008C7020008C7020008C70200083C
:10008000C7020008C7020008C7020008C70200082C
:10009000C7020008C7020008C7020008C70200081C
:1000A000C7020008C7020008C7020008C70200080C
:1000B000C7020008C7020008F1530008C702000881
:1000C000C7020008C7020008C7020008C7020008EC
:1000D000C7020008C7020008C70200081D68000820
:1000E000C7020008C702000800000000C70200089D
:1000F000C7020008C7020008FD530008C702000835
:10010000C7020008C7020008C7020008C7020008AB
:1001100005590008C7020008C7020008C702000806
:10012000C7020008C7020008C7020008C70200088B
:10013000C7020008C7020008C7020008C70200087B
:1001400000000000000000000000000000000000AF
:10015000C7020008C7020008C7020008C70200085B
:10016000C7020008C7020008C7020008C70200084B
:10017000C7020008C7020008C7020008000000000C
:10018000C7020008C7020008C7020008C70200082B
:10019000C7020008C7020008C7020008C70200081B
:1001A000C7020008C7020008C7020008C70200080B
:1001B000C7020008C7020008C7020008C7020008FB
:1001C000C7020008C7020008C7020008C7020008EB
:1001D000C7020008C7020008C7020008C7020008DB
:1001E000C7020008C7020008C7020008C7020008CB
:1001F000C7020008C7020008C7020008C7020008BB
:10020000C7020008C7020008C7020008C7020008AA
:10021000C7020008C7020008C7020008C70200089A
:10022000C7020008C7020008C7020008000000005B
:10023000C7020008C702000800000000C70200084B
:10024000C7020008C7020008C7020008C70200086A
:10025000C7020008C7020008C7020008C70200085A
:10026000C7020008C7020008C7020008C70200084A
:10027000C7020008C7020008C7020008000000000B
:10028000C702000800000000C702000800000000CC
:1002900000000000C7020008DFF80CD000F08CF866
:1002A0000048004755700008A00A00200648804713
:1002B00006480047FEE7FEE7FEE7FEE7FEE7FEE74B
:1002C000FEE7FEE7FEE7FEE76D530008990200082F
:1002D0002DE9F05F0546002092469B46884606467B
:1002E000814640241BE0284641464746224600F00E
:1002F00053F853465A46C01A914110D31146184636
:10030000224600F03AF82D1A67EB01084F462246C4
:100310000120002100F031F817EB00094E41201EAA
:10032000A4F10104DFDC484631462A464346BDE8D5
:10033000F09F40EA01039B0703D009E008C9121FA0
:1003400008C0042AFAD203E011F8013B00F8013B8F
:10035000521EF9D27047D2B201E000F8012B491EBB
:10036000FBD270470022F6E710B513460A46044652
:100370001946FFF7F0FF204610BD202A04DB203A83
:1003800000FA02F1002070479140C2F1200320FAE8
:1003900003F3194390407047202A04DB203A21FAE6
:1003A00002F00021704721FA02F3D040C2F120028E
:1003B0009140084319467047064C074D06E0E06837
:1003C00040F0010394E8070098471034AC42F6D39C
:1003D000FFF766FFA88E0008C88E000870B53D497B
:1003E00005460068884202D03B4A904202D1D1F8CB
:1003F000080302E03948D0F8080310F4403F11D058
:1004000002F058FB04466868B0F5803F06D0B0F5AE
:10041000003F03D0B0F5403F26D101E0000C17E0CB
:10042000A40821E04FF4002001F0EEFC04466868C7
:100430008103890B18D181140C2915D2DFE801F052
:10044000140606060606060B0D0F1113800C40005D
:10045000B4FBF0F408E0240906E0640904E0A40910
:1004600002E0E40900E0240A01F012F941F203017C
:10047000884208D81A4884422868816817D821F42D
:100480008071816070BD17496008884204D828686F
:10049000816821F44071F4E71249124AC943521E9F
:1004A0000144914206D82868816821F4407141F4E2
:1004B0008071E6E70C4908440C4988422868816845
:1004C00004D821F4407141F40071DAE741F440713D
:1004D000D7E70000002002400021024000600258DF
:1004E000002D3101105E5F00DF4341FF1FBCBE00E5
:1004F0000E48002110B503F0E7F90C48042103F081
:10050000E3F90A48082103F0DFF908480C2103F059
:10051000DBF906480821403803F0F0FB03480C21C2
:10052000BDE81040403803F0E9BB0000D0030020D4
:100530001F48002110B503F0E1FB1D48042103F022
:10054000DDFB1B48082103F0D9FB19480C2103F0FF
:10055000D5FB17480021403003F0D0FB144804219C
:10056000403003F0CBFB12480821403003F0C6FBBB
:100570000F480C21403003F0C1FB0D4800218030B2
:1005800003F0BCFB0A480421803003F0B7FB0948A4
:10059000002103F0B3FB07480021403003F0AEFB1D
:1005A00004480421BDE81040403003F0A7BB000020
:1005B0001003002010040020DFED260AB1EE041A1B
:1005C000012840EE010ABDEEE00A10EE101A09B251
:1005D00017D0032818D0D0B102281CD005281DD070
:1005E00007281ED004281FD0062820D0092823D091
:1005F0000B2825D0082829D00A282AD18AB2082118
:1006000017E08AB204211DE08AB2002101E08AB21B
:100610000821114818E08AB204210AE08AB20021B8
:100620000CE08AB20421F4E78AB20C21F1E78AB225
:100630000C210948403807E08AB20421074803E04A
:100640008AB200210448403006F024B98AB2002161
:10065000EFE7704700803B44500300205004002027
:10066000FEE7704730B50368426B53F8844F4FF68E
:10067000FC718C4344EA82041C60036853F8844F85
:10068000058F24F47F0444EA05441C60836B1A44FC
:100690000368D3F888408C4344EA8204C3F8884056
:1006A000036853F8884F858F24F4FE0444EA054418
:1006B0001C60C36B02EB43020368D3F8A0408C4379
:1006C00044EA8204C3F8A040036853F8A04FB0F88E
:1006D000405024F4FE0444EA05441C60D0E9103480
:1006E00003FB04220368D3F8B0408C4344EA82043D
:1006F000C3F8B040036853F8B04FB0F8485024F442
:10070000FE0444EA05441C60D0E9123403FB0422D1
:100710000368D3F8AC408C4344EA8204C3F8AC408D
:10072000D0E9143403FB04220368D3F8F0408C436F
:1007300044EA8204C3F8F040036853F8F04FB0F87D
:10074000585024F47C1444EA05441C60836D02EB89
:1007500043030268D2F8C0408C4344EA8301C2F8E4
:10076000C010016851F8C02FB0F85C3022F47C1240
:1007700042EA03420A60016851F8C02F90F86030E5
:1007800022F07C5242EA03620A60416B234A02EB88
:100790008101C166826B01EB82020267C36B02EBCF
:1007A000C3024267D0E91034634302EB83028267DD
:1007B000D0E91234634302EB8302C267D0E91434F8
:1007C000634302EB8302C0F88020836D02EBC30217
:1007D000C0F88420C46D836E5C4302EB8402C0F8D1
:1007E0008820046E5C430E4B02EB8402C0F890201C
:1007F0009A420AD9D0F89C1041F02001C0F89C1010
:10080000032180F89810012030BD002200E004C1CF
:10081000D0F890308B42FAD8002030BD00AC0040B8
:10082000FCD300402DE9F047044690F85000002723
:100830000D4601289AB014D0012084F85000DFF84A
:10084000E8804FF00009216841450ED1374E0096EF
:10085000304603F039FE8246206803F035FE60B171
:100860000EE002201AB0BDE8F087616D41F0200172
:100870006165012084F85090F4E7BAF1000F08D0C8
:10088000606D40F020006065012784F85090384684
:10089000E8E720684346984201D0B04201D124489D
:1008A00000E0244840F61F722968DFF88CC0002958
:1008B000816821F440411ED0D5F8048041EA080146
:1008C00081602168994201D0B14207D19968B3682B
:1008D000C1F30001C3F30003194303E0DCF808107F
:1008E000C1F300010029D0D1AB682968194383689E
:1008F0009343194315E081602168994201D0B142C8
:1009000007D19968B368C1F30001C3F30003194329
:1009100003E0DCF80810C1F300010029B5D18168BB
:1009200091438160B1E700000020024000210240B5
:100930000023024000630258006002582DE9F84F7E
:1009400000270446DFF898930D460097BB4690F8C1
:100950005000E44EDFF890A3012808D04FF00108C2
:1009600084F85080206803F0ABFD18B167E10220E5
:10097000BDE8F88F2168CA692868030329D090FA76
:10098000A0F0B0FA80F000F01F0308FA03F0024371
:10099000CA61D5E9002021680C2303EA90131944A9
:1009A0000B6B00F01F004FF01F0CC2F384620CFAB7
:1009B00000FC824023EA0C0313430B63206803F01E
:1009C0007FFD0090206803F073FD0099014303D080
:1009D0007EE0C0F38460D6E7AA682968206803F047
:1009E00077FDC2480168B8EB117F06D168692168BC
:1009F000C968C1F38201490008E02168C868C006DF
:100A00006869F5D5C96801F010014908884029696D
:100A100004292DD023682A6803EB81010B6E02F0B4
:100A2000F842024303F0004313430B66697E2268D9
:100A30002869012916D0002102EB8000026E22F005
:100A400000420A430266297E20682A6901290CD0E7
:100A50000021036902F01F0223F4F04391400B438D
:100A6000036135E04FF00041E6E74FF40061F0E745
:100A70002068016E2A7801F0F841B1EB826F03D152
:100A8000016E21F0004101662068416E2A7801F074
:100A9000F841B1EB826F03D1416E21F00041416614
:100AA0002068816E2A7801F0F841B1EB826F03D1A2
:100AB000816E21F0004181662068C16E2A7801F0C4
:100AC000F841B1EB826F03D1C16E21F00041C166E4
:100AD000206803F0F1FC002873D120682A7B296884
:100AE00050F8C03FC1F3130C23EA0C0302F0180CBA
:100AF0007F4A22FA0CF20A4013430360E968494531
:100B000075D1286801031AD090FAA0F1B1FA81F1E9
:100B1000491C01F01F0109294FEA003130D8002992
:100B200010D090FAA0F1B1FA81F101F1010101F0C8
:100B30001F0108FA01F208D1C0F3846109E0C0F393
:100B40008461E5E7C0F38461EFE790FAA0F1B1FAC0
:100B500081F101F1010101F01F0142EA816102D13D
:100B6000C0F3846003E090FAA0F0B0FA80F000F1E6
:100B7000010000F01F0000EB400041EA005132E0AC
:100B800000290DD090FAA0F1B1FA81F101F1010133
:100B900001F01F0108FA01F205D1C0F3846106E0FB
:100BA000C0F38461F2E790FAA0F1B1FA81F101F1AA
:100BB000010101F01F0142EA816103D1C0F38460A9
:100BC00004E041E090FAA0F0B0FA80F0494A00F168
:100BD000010000F01F0000EB400002EB005041EA72
:100BE000000141F00071AA68206803F071FC2A68D6
:100BF000002A29DA404B2068404DDFF804919842E2
:100C000001D0B04201D1294600E0494689689842A6
:100C100001F0E07101D0B0420AD1D3F808C0D6F893
:100C20000880CCF3000CC8F300084CEA080C03E081
:100C3000DAF808C0CCF3000CBCF1000F08D0606DEE
:100C400040F020006065012784F850B038468FE6F8
:100C5000DFF8B0C062451CD15FEA012C19D45045C1
:100C6000F2D1984202D0B04200D04D4641F400008B
:100C7000A96821F0E0710143A96023482349006875
:100C8000B0FBF1F0400000E0401E00900028FBD1D6
:100C9000DAE7DFF87CC062450CD15FEAC11C09D4F9
:100CA0005045D1D1984202D0B04200D04D4641F0DB
:100CB00080700EE0DFF85CC06245C5D14A02C3D443
:100CC0005045C1D1984202D0B04200D04D4641F4C7
:100CD0008000A96821F0E0710143A960B4E7000039
:100CE0000000FF4700210240006002580010005C35
:100CF000FFFF0F00000020FE002002400023024002
:100D000000630258000084CBEC000020400D03007B
:100D1000000052C70000B8CFF8B54FF0000504003E
:100D20002E46009502D0606D10B107E00120F8BD9D
:100D3000204600F001F9A66584F8506020688168BB
:100D4000C1F3407119B181686E4A11408160206819
:100D50008168C1F3007179B981686B4A114041F033
:100D60008051816069486A490068B0FBF1F000E099
:100D7000401E00900028FBD120688168C1F30071FB
:100D800041B9616D41F010016165A16D41F0010152
:100D9000A165012503F094FB616DC90600D430B153
:100DA000606D40F01000606501252846F8BD606D5B
:100DB00020F4807040F002006065206803F07CFB46
:100DC00000BB544A2068544B904201D0984207D14E
:100DD00091689E68C1F30001C6F30006314303E049
:100DE0004E498968C1F3000161B9904201D098422F
:100DF00001D14B4800E04B486168826822F47C12C4
:100E00000A43826000F044FC41F20301884202D9A7
:100E1000A06810280CD0A168206B227F0843617D58
:100E2000490341EA02410843D1B201290CD010E044
:100E3000617D227F206B490340F0100041EA0241AE
:100E4000084340F00C00EFE7218C374A02EB4141A8
:100E50000843616A29B1A26A01F47871014342EA48
:100E600001002168CA68314B1A400243CA602068F9
:100E700003F026FB0646206803F01AFB06431DD14B
:100E8000217DE06A40EA81312068C26844F20303B0
:100E90009A430A43C26094F83800012816D02068AB
:100EA000016921F00101016120680169626B21F093
:100EB0007041114301612046FFF790FAE068012874
:100EC0002068016B21F00F0110D012E0D4E910105E
:100ED000A28F174B0143A06C03EB02421043014366
:100EE00020680269134B1A401143DCE7A269521EC5
:100EF00011430163606D20F0020040F00100606565
:100F000053E70000C0FFFF5FC0FFFF7FEC00002041
:100F1000400D030000200240002102400060025802
:100F200000230240006302580000FEFF03C0F0FFF0
:100F30000100FFFF1EF800FC30B587B00446142105
:100F40006846FFF70FFA2B4B0025216803242A4837
:100F50002A4A994229D1284908390B6843F02003CD
:100F60000B60096801F020010591016841F004015E
:100F70000160016801F004010591016841F001017F
:100F800001600068694600F00100059013208DE8BB
:100F90003100104600F082FAFC2069468DE83100ED
:100FA000174800F07BFA07B030BD164B9942FAD1D2
:100FB000016841F080710160016801F08071059164
:100FC000016841F0040101600068694600F0040016
:100FD000059001208DE83100104600F05FFA4FF0D7
:100FE0008060014602F084F84FF00060014602F094
:100FF0007FF8D8E700200240E04402580008025879
:1010000000000258006002582DE9F05F28B190F806
:101010003510022904D0802141650120BDE8F09FF0
:10102000684C684D674E1834664F3035664B48360D
:10103000644A6037DFF88C91A833DFF888A1DFF8C5
:1010400084B109F17809DFF880E10AF1900A0168BA
:101050000BF1A80BDFF870810EF1780E914232D0BF
:10106000A14230D0A9422ED0B1422CD0B9422AD0D0
:10107000494528D0514526D0594524D0C44661451C
:1010800021D0DFF844C10CF1180C61451BD0DFF80A
:1010900038C10CF1300C614515D0DFF82CC10CF1D2
:1010A000480C61450FD0DFF820C10CF1600C6145A0
:1010B00009D0714507D0DFF810C10CF1900C6145E3
:1010C00001D099422ED14FF0040C80F835C09142E6
:1010D00023D0A14221D0A9421FD0B1421DD0B94294
:1010E0001BD0494519D0514517D0594515D0414518
:1010F00013D03548183081420FD033483030814208
:101100000BD031484830814207D02F4860308142AF
:1011100003D0714501D02C489030086820F00100C0
:1011200008604DE0D1F8008028F00E08C1F800807A
:10113000016891421ED0A1421CD0A9421AD0B142EE
:1011400018D0B94216D0494514D0514512D059454E
:1011500010D01D4A91420DD01B4A1832914209D03D
:10116000194A3032914205D0174A4832914201D093
:10117000154A60320A6822F001020A60016E0A68AC
:1011800022F480720A6090F85C20816D02F01F03E7
:10119000012202FA03F34B60D0E919134B60C16ED0
:1011A00031B10B6823F480730B60D0E91C134B60E2
:1011B000002180F8341080F83520016D01B1884796
:1011C00000202BE7100002401004024070B50446D6
:1011D00000F064FA0546601C02D00448007804441C
:1011E00000F05CFA401BA042FAD370BDE000002082
:1011F0002DE9F04194B08D494C2204466846FFF732
:1012000098F864B18A4E2068B04202D100F580702F
:10121000606094F898004FF0000820B108E00120C9
:1012200014B0BDE8F081204684F8998000F002F9FE
:101230002068816921F01001816100F02FFA0327F5
:10124000054604E000F02AFA401B0A2811D820685D
:1012500080690007F6D42068816941F0010181614D
:1012600000F01CFA05460DE000F018FA401B0A28B1
:1012700008D9D4F89C0040F00100C4F89C0084F820
:101280009870CCE720688069C007EDD0206881693C
:1012900041F002018161207C01282068816937D0FA
:1012A00041F040018161607C01282068816932D071
:1012B00021F480418161A07C0128206881692DD0C2
:1012C00041F48051816120688169A26821F44071F4
:1012D000114381612068816921F0A4018161206846
:1012E000016921F010010161E068012819D010B3F3
:1012F00002281BD02068816941F08001816120684B
:10130000016941F010010161E06803280ED012E08C
:1013100021F04001C6E741F48041CBE721F4805140
:10132000D0E72068816941F0040103E02068816909
:1013300041F020018161207E6FF0FF02E169A38A04
:10134000400602EB0121A0F100700843216A491E0A
:101350000843110201EB034318432368D861A068D6
:10136000B0F5407F10D1D4E90A03401E02EB0322FE
:101370001043226B0B1303EB02121043A28C01EB00
:10138000024108432168C860206E30B12068D0F85F
:10139000C010626E1143C0F8C010D4E91701C842F2
:1013A000694609D0206850F8C82FA36E22F00702C2
:1013B00051F823301A430260206C48B1206850F87D
:1013C000BC2F636C22F0070251F823301A430260ED
:1013D000A06C50B1206850F8BC2FE36C22F0700272
:1013E00051F8233042EA03120260206D50B12068A8
:1013F00050F8BC2F636D22F4E06251F8231042EAEA
:10140000012101602068B04204D16068816821F048
:1014100003018160C4F89480C4F89C80012084F8A2
:1014200098002046FFF71EF9FAE600005C8D0008E0
:1014300000A0004010B586B0044614216846FEF7AF
:1014400091FF1349206888421FD11248016841F476
:1014500080710160006800F4807005900D480C38C0
:10146000016841F0080101600068694600F0080069
:10147000059003200090022001900020029003902C
:1014800009200490044800F009F806B010BD0000DF
:1014900000A00040EC440258000C02582DE9F84F1F
:1014A0006C4C00224FF0B04A4FF0010B4FF0030E8E
:1014B0004FF00F09C7E00BFA02F73B4070D04D68C0
:1014C000022D01D0122D12D1D50800EB850CDCF8CD
:1014D00020605507ED0E09FA05F826EA0806D1F84E
:1014E000108008FA05F848EA0608CCF82080D0F801
:1014F00000C0560091F804800EFA06F508F00308C3
:101500002CEA050C08FA06F848EA0C08C0F8008036
:10151000D1F804C0BCF1010F08D0BCF1020F05D016
:10152000BCF1110F02D0BCF1120F16D1D0F808C0D7
:10153000D1F80C802CEA050C08FA06F848EA0C08E9
:10154000C0F80880D0F804C02CEA070C0F79C7F364
:101550000017974047EA0C074760C768AF438D689C
:10156000B5403D43C5604D68ED006BD53A4D2E68E2
:1015700046F002062E602D6822F0030606F1B04602
:1015800005F002050095D6F808C495072F0F09FA53
:1015900007F52CEA050C314DA84202D100252EE0BA
:1015A00050E02F4DA84201D1012528E02D4DA84241
:1015B00001D1022523E02C4DA84201D103251EE0D4
:1015C0002A4DA84201D1042519E0294DA84201D194
:1015D000052514E0274DA84201D106250FE0264D30
:1015E000A84201D107250AE0244DA84201D10825CF
:1015F00005E0234DA84201D1092500E00A25BD40A0
:1016000045EA0C05C6F8085425684E689D43F60364
:1016100000D51D43256065684E689D43B60300D51F
:101620001D436560DAF8005056464F689D43FF023F
:1016300000D51D43356075684F689D43BF0200D5D6
:101640001D437560521C0B6833FA02F57FF433AF0B
:10165000BDE8F88F80000058F4440258000002589A
:101660000004025800080258000C025800100258EA
:101670000014025800180258001C0258002002589A
:10168000002402580AB1816170470904FBE7000099
:1016900001480068000C70470010005C0148806839
:1016A00070470000E000002090F84120202A24D15B
:1016B00090F84020012A20D0012280F840202422E6
:1016C00080F841200268136823F001031360026868
:1016D000136823F480531360026813680B4313608C
:1016E00001680A6842F001020A60202180F8411076
:1016F000002180F84010084670470220704790F89B
:101700004120202A22D190F84020012A1ED0012217
:1017100080F84020242280F841200268136823F0DA
:10172000010313600268136823F4706343EA012124
:10173000116001680A6842F001020A60202180F805
:101740004110002180F84010084670470220704781
:1017500070B5040004D094F84100002510B106E0F3
:10176000012070BD204684F8405000F04DF8242040
:1017700084F841002068016821F0010101602168BE
:10178000606820F0706008612068816821F4004181
:101790008160E0680128A06807D040F40440216817
:1017A0008860E068022803D006E040F40040F6E7D5
:1017B00021684FF40060486020684168114A114375
:1017C00041602068C16821F40041C160D4E904018E
:1017D0000843A16940EA01202168C860D4E90701F3
:1017E0000843216808602068016841F00101016038
:1017F0006564202084F84100256384F8425000206D
:1018000070BD00000080000210B586B004461421AF
:101810006846FEF7A7FD13492068884220D1124888
:10182000016841F0020101600068694600F00200B1
:1018300005904FF44070009012200190002002901B
:101840000390042004900948FFF728FE064808305A
:10185000016841F400110160006800F40010059077
:1018600006B010BD00540040E04402580004025885
:10187000024881680278114481607047E0000020CE
:10188000032010B500F084F801F04EF90E4A1168FB
:10189000C1F303230D49CB5C03F01F03D8400C4B6D
:1018A0001860126802F00F02895C01F01F01C84045
:1018B00008490860002000F00FF808B1012010BDB1
:1018C00000F02AF8002010BD18440258A88D000826
:1018D000EC000020F000002070B50D4D04462A7881
:1018E000A2B14FF47A700B49B0FBF2F00968B1FB7A
:1018F000F0F001F005FC48B9102C07D20022214677
:10190000501E00F025F800206C6070BD012070BDF5
:10191000E0000020EC000020054808B5016841F017
:1019200002010160006800F00200009008BD0000A4
:10193000F4440258002809DB012100F01F02914005
:101940004009800000F1E020C0F80011704700005D
:101950000E4BF0B41B68C3F30223C3F10704042C3D
:1019600000D904241D1D072D01D2002300E0DB1E39
:10197000012606FA04F56D1E0D409D409E40761E20
:10198000164045EA0601F0BC04F0B7BF0CED00E0DC
:10199000064A00F0070110684FF6FF03184040EABE
:1019A0000120034908431060704700000CED00E07F
:1019B0000000FA05124970B50A68520706D40A6891
:1019C00002F00702824201D0012070BD0A6822F0B5
:1019D000070202430A60FFF761FE094D4FF47A7671
:1019E0000446083D06E0FFF759FE001BB04201D94E
:1019F000032070BD28688004F5D5002070BD00006C
:101A00000C48025810B501F08FF806490968064ADB
:101A1000C1F30321515C01F01F01C8400349086074
:101A200010BD000018440258A88D0008EC000020EA
:101A300010B501F03FF805490968054AC1F30211E4
:101A4000515C01F01F01C84010BD00002044025845
:101A5000A88D0008484910B50A68096802F0030219
:101A6000454B1B1DC1F305111B68434C03F00103DB
:101A70000C342468C4F3CC0414FB03F300EE103AD6
:101A8000B8EE400AE9B33C4B9FED3C1A0833F7EE41
:101A9000000A62B1DFED3A1A012A01D0022A5ED0B3
:101AA00002EE101AF8EE422A81EEA22A1AE0324A19
:101AB000283A1468A4060DD51268C2F3C104314A4D
:101AC000E24001EE902AF8EE612A01EE901AF8EE5B
:101AD000611A05E001EE901ADFED2B2AF8EE611A8B
:101AE00082EEA12A1968C1F3080101EE901A196863
:101AF000F8EE611A40EE011A31EEA00A22EE000A59
:101B000000E033E0C1F3462101EE101AB8EE411AAD
:101B100031EE201AC0EE011ABCEEE11A80ED001A77
:101B20001968C1F3064101EE101AB8EE411A31EE00
:101B3000201AC0EE011ABCEEE11A80ED011A1968F4
:101B4000C1F3066101EE101AB8EE411A71EE200AD7
:101B500080EE201ABCEEC10A80ED020A10BD01EE33
:101B6000901ADFED0A2AF8EE611AB9E70021016048
:101B70004160816010BD0000284402580000003917
:101B80000024744A0090D0030024744C20BCBE4B47
:101B9000484910B50A68096802F00302454B1B1D4D
:101BA000C1F305311B68434C03F01003143424685F
:101BB000C4F3CC0414FB03F300EE103AB8EE400A71
:101BC000E9B33C4B9FED3C1A1033F7EE000A62B1CB
:101BD000DFED3A1A012A01D0022A5ED002EE101A75
:101BE000F8EE422A81EEA22A1AE0324A283A146814
:101BF000A4060DD51268C2F3C104314AE24001EED9
:101C0000902AF8EE612A01EE901AF8EE611A05E0CA
:101C100001EE901ADFED2B2AF8EE611A82EEA12A6E
:101C20001968C1F3080101EE901A1968F8EE611AFB
:101C300040EE011A31EEA00A22EE000A00E033E085
:101C4000C1F3462101EE101AB8EE411A31EE201A06
:101C5000C0EE011ABCEEE11A80ED001A1968C1F35A
:101C6000064101EE101AB8EE411A31EE201AC0EE0C
:101C7000011ABCEEE11A80ED011A1968C1F3066180
:101C800001EE101AB8EE411A71EE200A80EE201A09
:101C9000BCEEC10A80ED020A10BD01EE901ADFED24
:101CA0000A2AF8EE611AB9E70021016041608160FB
:101CB00010BD000028440258000000390024744A76
:101CC0000090D0030024744C20BCBE4B484910B592
:101CD0000A68096802F00302454B1B1DC1F3055158
:101CE0001B68434C03F480731C342468C4F3CC0495
:101CF00014FB03F300EE103AB8EE400AE9B33C4B94
:101D00009FED3C1A1833F7EE000A62B1DFED3A1A84
:101D1000012A01D0022A5ED002EE101AF8EE422A01
:101D200081EEA22A1AE0324A283A1468A4060DD598
:101D30001268C2F3C104314AE24001EE902AF8EE83
:101D4000612A01EE901AF8EE611A05E001EE901A90
:101D5000DFED2B2AF8EE611A82EEA12A1968C1F391
:101D6000080101EE901A1968F8EE611A40EE011AA6
:101D700031EEA00A22EE000A00E033E0C1F3462172
:101D800001EE101AB8EE411A31EE201AC0EE011A17
:101D9000BCEEE11A80ED001A1968C1F3064101EEAC
:101DA000101AB8EE411A31EE201AC0EE011ABCEE3C
:101DB000E11A80ED011A1968C1F3066101EE101AEB
:101DC000B8EE411A71EE200A80EE201ABCEEC10A6C
:101DD00080ED020A10BD01EE901ADFED0A2AF8EE3E
:101DE000611AB9E7002101604160816010BD000007
:101DF00028440258000000390024744A0090D0039F
:101E00000024744C20BCBE4B2DE9F04301466148D0
:101E1000DFF87C814FF4807C5F4C89B05F4F031109
:101E200046046145A8F104024FF0805529D1D8F845
:101E3000001001F0070105291FD2DFE801F0030AB5
:101E40000F20140003A8FFF705FE049809B0BDE8B1
:101E5000F0836846FFF79CFE0098F7E706A8FFF7B7
:101E600035FF0698F2E7116811F04051EED0A94213
:101E700079D11846EAE72046E8E70020E6E7384649
:101E8000E4E7B1F5007F1AD0DFF804C1B1F5806F47
:101E90000CF1080C24D0B1F5006F36D04FF4805906
:101EA00049454ED1D8F8001001F4E041B1F5005F8A
:101EB000D4D03FDC0029C5D04945DED1C9E7D8F8E8
:101EC000001001F4E0718029C8D004DC0029B9D0E9
:101ED0004029D2D1BDE7C029D1D06145CDD1C2E7DB
:101EE000DCF8001001F46001B1F5800FB6D005DC1C
:101EF0000029A7D0B1F5001FBFD1AAE7B1F5C00FE7
:101F0000BDD0B1F5000FB8D1ADE7DCF8001001F09D
:101F1000E061B1F1007FA1D005DC002992D0B1F1E0
:101F2000807FAAD195E7B1F1407FA8D0B1F1806F51
:101F3000A3D198E7B1F5405FA1D0B1F5804F9CD116
:101F400091E7B1F5002F4FF480370DD0B94294D10D
:101F5000106810F48030AED0B8428ED16846FFF7DA
:101F600017FE029872E70FE0DCF8001011F4403120
:101F7000A4D0B94203D0B1F5003F9ED173E706A8C3
:101F8000FFF7A4FE089861E7B14296D173E700001D
:101F9000504402580090D00340787D010080BB007F
:101FA0002DE9F84F0446006800252E46010104F192
:101FB0002400FE4FDFF8F88300901DD5606E50B10D
:101FC000B0F5801F0CD0B0F5001F0ED0B0F5401F4B
:101FD0001DD001250FE0386840F40030386016E06D
:101FE0000221201D02F058FE03E00098022102F0B9
:101FF000DDFE05000BD02E462088C00523D5606D80
:1020000005281ED2DFE800F00C11161B1B00D8F8C3
:102010000010626E21F440111143C8F80010EBE784
:10202000386840F40030386009E00021201D02F0DB
:1020300033FE03E00098002102F0B8FE05466DB1C2
:1020400000E001252E462088800528D5A06D802837
:102050001ED00CDC90B140280ED114E0D8F800104E
:10206000626D21F007011143C8F80010EBE7C028AA
:1020700013D0B0F5807F10D001250FE0386840F410
:102080000030386009E00021201D02F005FE03E069
:102090000098002102F08AFE054685B12E46208870
:1020A000DFF8109340052CD5D4F8A400B0F5800FCC
:1020B00020D00DDCA0B1B0F5001F0FD115E0D8F88D
:1020C0000010A26D21F4E0711143C8F80010E6E79A
:1020D000B0F5C00F13D0B0F5000F10D001250FE000
:1020E000386840F40030386009E00021201D02F01B
:1020F000D3FD03E00098002102F058FE054675B1BB
:102100002E46208800052DD5D4F8A800B0F1007F18
:1021100021D00EDCA8B1B0F1807F10D116E0D9F843
:102120000010D4F8A42021F460011143C9F8001074
:10213000E7E7B0F1407F13D0B0F1806F10D00125F8
:102140000FE0386840F40030386009E00021201DBD
:1021500002F0A2FD03E00098002102F027FE0546F0
:102160006DB12E46206880011FD5A06CD8B1102813
:102170000FD0202812D0302815D0012514E0D9F82E
:102180000010D4F8A82021F0E0611143C9F8001034
:10219000E8E7386840F40030386004E00221201D90
:1021A00002F07AFD05466DB12E462088C0042BD57D
:1021B000E06DB0F5005F20D00DDCA0B1B0F5805F20
:1021C0000FD115E07A48001F0168A26C21F03001A0
:1021D00011430160E9E7B0F5405F13D0B0F5804FDF
:1021E00010D001250FE0386840F40030386009E075
:1021F0000021201D02F050FD03E00098002102F0B4
:10220000D5FD054685B12E462088800429D5206E4F
:10221000B0F5403F23D010DC08B3B0F5803F14D0B8
:10222000B0F5003F0FD115E0D8F80010E26D21F4B1
:10223000E0411143C8F80010E6E7B0F5802F0ED05A
:10224000B0F5A02F0BD001250AE00121201D02F0DE
:1022500023FD03E00098012102F0A8FD05468DB1A1
:102260002E46208840042AD5D4F8AC00B0F1405F57
:1022700023D010DC08B3B0F1805F14D0B0F1005F60
:102280000FD115E0D8F80010226E21F4E02111439F
:10229000C8F80010E5E7B0F1804F0ED0B0F1A04FC4
:1022A0000BD001250AE00121201D02F0F5FC03E01E
:1022B0000098012102F07AFD05466DB12E46208876
:1022C00000041FD5E06ED8B1B0F1805F0ED0B0F140
:1022D000005F10D0012514E0D9F80010D4F8AC202C
:1022E00021F0E0411143C9F80010E8E7386840F4F4
:1022F0000030386004E00121201D02F0CDFC0546CD
:102300006DB12E462068C0011ED5606CD0B1012889
:102310000ED0022811D0032814D0012513E0D8F8DC
:102320000010E26E21F040511143C8F80010E9E7B7
:10233000386840F40030386004E00221201D02F0CB
:10234000ABFC054675B12E462068DFF86CB0400244
:102350005AD51A48016841F480710160FFF79EF96F
:1023600082460EE01248001F0168626C21F00301F2
:1023700011430160E8E7FFF791F9A0EB0A00642838
:102380003AD80E480068C005F5D5B5BB09481830E5
:102390000068B4F8B01000F4407001F44071884255
:1023A00019D00448183001680AE000002C44025893
:1023B00050440258584402581044025800480258E9
:1023C000026821F4407142F480320260026822F413
:1023D000803202600160D4F8B000B0F5807F22D175
:1023E000FFF75CF9824609E0FFF758F9A0EB0A0114
:1023F00041F28830814201D9032504E0FE4800689B
:102400008007F1D57DB12E462078DFF8F0A3C00714
:102410003CD0A06F182837D025DC78B3082828D006
:10242000102824D12BE0D4F8B000C0F301210329F7
:102430000ED0DBF8001021F47C51CBF80010EE48F0
:102440000168B4F8B020C2F30B0211430160DBE76E
:10245000DBF80020EA4B22F47C5203EA101002431E
:10246000CBF80020EBE720280ED028280CD001253F
:102470000BE00121201D02F00FFC04E004E00098B5
:10248000012102F093FC05465DB12E4620788007BD
:102490001ED5606F062819D2DFE800F0160C111661
:1024A0001616DAF80010A26F21F038011143CAF8AD
:1024B0000010EBE70121201D02F0EEFB03E0009885
:1024C000012102F073FC054675B100E001252E469E
:1024D000207840071FD5D4F89000062819D2DFE8ED
:1024E00000F0160C11161616DAF80010626F21F0C3
:1024F00007011143CAF80010EAE70121201D02F08C
:10250000CBFB03E00098012102F050FC05469DB191
:1025100000E001252E46207880062BD5D4F88C00CB
:10252000B0F1405F24D011DC10B3B0F1805F15D062
:10253000B0F1005F10D116E0D9F80010D4F8902067
:1025400021F007011143C9F80010E4E7B0F1804F12
:102550000ED0B0F1A04F0BD001250AE00021201DC4
:1025600002F09AFB03E00098022102F01FFC0546EE
:102570008DB12E46207840062BD5D4F89800B0F5C2
:10258000406F24D011DC10B3B0F5806F15D0B0F5DA
:10259000006F10D116E0DAF80010D4F88C2021F08A
:1025A000E0411143CAF80010E4E7B0F5805F0ED0B7
:1025B000B0F5A05F0BD001250AE00021201D02F03C
:1025C0006BFB03E00098022102F0F0FB05468DB1A1
:1025D0002E46207800062BD5D4F89C00B0F5C04FCD
:1025E00024D011DC10B3B0F5005F15D0B0F5804FEA
:1025F00010D116E0D9F80010D4F8982021F4E05159
:102600001143C9F80010E4E7B0F5004F0ED0B0F563
:10261000204F0BD001250AE00021201D02F03CFBD9
:1026200003E00098022102F0C1FB054665B32E4687
:10263000207800070BD5D4F88000B0F5805F2DD04E
:10264000DAF8002022F440520243CAF80020207831
:10265000C0060BD5D4F89400B0F5807F26D0D9F809
:10266000002022F440720243C9F8002020680003D1
:1026700030D5D4F8A00008B3B0F5803F23D0B0F532
:10268000003F25D0012524E0D9F80010D4F89C2083
:1026900021F460411143C9F80010C9E700980221F4
:1026A00002F084FB0028D2D00126D0E70098022156
:1026B00002F07CFB0028D9D00126D7E70021201D9D
:1026C00002F0EAFA03E00098022102F06FFB0546EF
:1026D00085B12E462068400322D5D4F88400B0F599
:1026E000801F11D0B0F5001F13D0B0F5401F15D0DA
:1026F000012514E0D9F80010D4F8A02021F44031CD
:102700001143C9F80010E5E7386840F4003038603C
:1027100004E00098012102F049FB054655B12E4620
:102720002068C0031CD5E06C70B1B0F5803F10D0BC
:10273000012514E0DAF80010D4F8842021F44011C7
:102740001143CAF80010EBE7386840F400303860F5
:1027500004E00221201D02F09FFA0546CDB12E466D
:102760002068800005D50098022102F01FFB00B10F
:102770000126206880031BD5E06FB8B1B0F5807FDB
:1027800010D0B0F5007F11D0B0F5407F0ED00125FC
:102790000DE01A4808380168E26C21F480311143D9
:1027A0000160DDE7386840F40030386055B32E46EC
:1027B0002068C00207D5D8F80010226F21F0004130
:1027C0001143C8F800102068C00008D5DBF80010DD
:1027D000D4F8B42021F480411143CBF800102068D4
:1027E000800207D5D8F80010A26E21F08071114345
:1027F000C8F80010206806E070440258544402589B
:10280000CFFFFF001CE040000CD5DBF8001021F4E6
:102810000041CBF80010DBF80010D4F8B8201143C9
:10282000CBF800102068002806DA0B480168226DFA
:1028300021F04051114301605EB10120BDE8F88FE5
:10284000DAF80010E26F21F440711143CAF8001069
:10285000AEE70020F2E700004C4402582DE9F05F9B
:1028600004000D467ED0DFF83092D9F8000000F069
:102870000F00A8420CD2D9F8001021F00F01294313
:10288000C9F80010D9F8000000F00F00A84269D183
:102890002078824E40070AD52069316801F0700126
:1028A000884204D9316821F07001014331602078F9
:1028B000DFF8EC8100070CD560694146D8F80020AC
:1028C00002F07002904204D90A6822F070020243BA
:1028D0000A602078C0060CD5A0694146D8F80020CF
:1028E00002F4E062904204D90A6822F4E0620243F2
:1028F0000A602078DFF8ACB180060CD5E069594653
:10290000DBF8002002F07002904204D90A6822F03D
:10291000700202430A60207880070AD5E0683168B7
:1029200001F00F01884204D9316821F00F01014301
:1029300031602078C0073DD03068A16820F4706015
:1029400008433060554960681839022818D00328B8
:1029500019D00968012819D04907002949DADFF898
:102960003CA100E045E0AAF1080ADAF8001021F0E5
:1029700007010143CAF80010FEF790FE074611E078
:1029800009688903E9E709688901E6E7C905E4E719
:10299000FEF784FEC11B41F28830814202D9032038
:1029A000BDE8F09FDAF80000616800F03800B0EB95
:1029B000C10FEDD1207880070AD5E068316801F0B9
:1029C0000F01884204D2316821F00F0101433160C8
:1029D000D9F80010484601F00F01A9420BD901684F
:1029E00021F00F0129430160006800F00F00A842A8
:1029F00001D00120D4E7207840070AD5206931684A
:102A000001F07001884204D2316821F07001014365
:102A10003160207800070CD560694146D8F8002065
:102A200002F07002904204D20A6822F0700202435F
:102A30000A602078C0060CD5A0694146D8F800206D
:102A400002F4E062904204D20A6822F4E062024397
:102A50000A60207880060CD5E0695946DBF8002032
:102A600002F07002904204D20A6822F0700202431F
:102A70000A6000F059F831680B4AC1F30321515C38
:102A800001F01F01C8400949086009480068BDE815
:102A9000F05FFEF721BF00000020005218440258EA
:102AA0001C44025820440258A88D0008EC00002065
:102AB000E400002010B5FEF7A5FF06490968064AA4
:102AC00001F00F01515C01F01F01C840034908608B
:102AD00010BD000018440258A88D0008F000002026
:102AE00010B5FFF7E7FF05490968054AC1F3021170
:102AF000515C01F01F01C84010BD00001C44025889
:102B0000A88D000810B5FFF7D5FF05490968054AEB
:102B1000C1F30221515C01F01F01C84010BD00004B
:102B20001C440258A88D0008434830B50068444C46
:102B300010F03801414808D00211082903D01029AB
:102B40000BD018290BD0104630BD21688906FBD563
:102B50002168C1F3C101C84030BD3A4830BD364993
:102B600018310A68096802F00302334B1C33C1F3C1
:102B700005111B68304D03F0010324352D68C5F3A2
:102B8000CC0515FB03F300EE103AB8EE400AE9B3AA
:102B9000294BDFED2D0A2033B7EE001A62B1DFEDCD
:102BA0002B1A012A01D0022A3CD002EE101AF8EEAC
:102BB000422A81EEA22A17E0226892060CD52268EA
:102BC000C2F3C102D04001EE900AF8EE612A01EE94
:102BD000901AF8EE611A05E001EE901ADFED1C2A5A
:102BE000F8EE611A82EEA12A1868C0F3080001EE1F
:102BF000900A1868F8EE611A40EE201A31EE810A48
:102C000022EE000AC0F34620401C00E011E000EE76
:102C1000900AF8EE600A80EE201ABCEEC10A10EEAF
:102C2000100A30BD01EE901ADFED0A2AF8EE611AA3
:102C3000D8E7002030BD0000104402580090D003B7
:102C40000044025840787D01000000390024744A95
:102C50000024744C20BCBE4B2DE9F05F04007CD0F6
:102C60002078DFF8FCA3DFF8FC83FF4DC00748D0D5
:102C7000DAF80000D8F8001000F03800102815D05D
:102C8000182803D101F0030002280FD06068B0F5C6
:102C9000803F12D010B1B0F5A02F18D0286820F4D2
:102CA00080302860286820F4802009E028688003AC
:102CB00027D560680028D2D023E0286840F480300F
:102CC0002860606888B1FEF7E9FC064609E02868DC
:102CD00040F480202860F0E7FEF7E0FC801B6428C9
:102CE0007ED828688003F7D50BE0FEF7D7FC0646B0
:102CF00004E0FEF7D3FC801B6428F1D82868800329
:102D0000F7D4207841F20309D84E80075AD5DAF873
:102D10000000D8F8001010F038000ED0182801D1AB
:102D200088070AD0E068B0B3296821F0190101438F
:102D30002960FEF7B3FC074629E02868400702D562
:102D4000E06800288BD02868E16820F0190008436B
:102D50002860FEF7A3FC074605E0CBE0FEF79EFCEB
:102D6000C01B0228BCD828684007F7D5FEF790FCA6
:102D70004845306810D8216920F47C3040EA0130A1
:102D800030601FE0FEF78AFCC01B0228A8D8286824
:102D90004007F7D5EAE705E0217C20F0FE4040EA55
:102DA0000160EDE7286820F001002860FEF776FC5E
:102DB000074604E0FEF772FCC01B022890D8286882
:102DC0004007F7D42078C00655D5DAF80000D8F8C7
:102DD000001000F03800DFF888B2ABF1040B00E01F
:102DE000ECE0082810D0182803D101F003000128D6
:102DF0000AD0E069002828682ED040F080002860C2
:102E0000FEF74CFC07461FE02868C0051FD5E069A7
:102E100080286FD11BE0306894F8201020F0F84033
:102E200040EA8160306026E0DBF8001094F8202052
:102E300021F07C5141EA0261CBF800101BE0FEF763
:102E40002DFCC01B02288DD82868C005F7D5FEF7D9
:102E50001FFC4845E8D8DEE720F080002860FEF738
:102E60001DFC064604E0FEF719FC801B02288DD8E5
:102E70002868C005F7D42078000724D5794F606909
:102E80004C37002838680FD040F001003860FEF75A
:102E900005FC064604E0FEF701FC801B02288DD8E5
:102EA00038688007F7D50EE020F001003860FEF7A3
:102EB000F5FB064604E0FEF7F1FB801B02287DD8F7
:102EC00038688007F7D42078800623D5A0690028C9
:102ED000286810D040F480502860FEF7DFFB0646DB
:102EE00004E0FEF7DBFB801B022867D8286880041B
:102EF000F7D50FE0DEE020F480502860FEF7CEFB2F
:102F0000064604E0FEF7CAFB801B022856D8286854
:102F10008004F7D42078400746D5554F386840F4F0
:102F200080703860FEF7BAFB064604E0FEF7B6FB99
:102F3000801B642842D83868C005F7D5494FA0687F
:102F4000483701280AD008B1052813D0386820F086
:102F500001003860386820F0040002E0386840F072
:102F600001003860A06841F2883988B1FEF796FB0D
:102F7000064609E0386840F004003860EEE7FEF7E6
:102F80008DFB811B494519D838688007F7D50BE0C0
:102F9000FEF784FB064604E0FEF780FB811B4945F3
:102FA0000CD838688007F7D4606AE0B3DAF800100C
:102FB000C1F3C20103297DD0022800E07BE028682C
:102FC00020F08070286003D0FEF768FB044688E09C
:102FD000FEF764FB064604E0FEF760FB801B022858
:102FE0007CD828688001F7D4D8F8001040F2F3327A
:102FF0009143E26A41EA0211A26A1143C8F8001043
:1030000094F834004FF4FE02218E4002491EA0F5D0
:10301000007080B2C1F308010843218F491E02EA03
:103020000141084300E05FE094F83C101202491EA1
:1030300002EA016108430B4908310860081F016872
:1030400021F00101016007490C310A684FF6F8735D
:103050009A43A36C42EAC3020A6001680AE00000D6
:1030600010440258284402580044025804440258AC
:1030700000480258226C21F00C01114301600168E4
:10308000626C21F0020111430160016841F480315A
:103090000160016841F400310160016841F4802160
:1030A0000160016841F001010160286840F0807012
:1030B000286001E01AE011E0FEF7F0FA044604E0AF
:1030C000FEF7ECFA001B022808D828688001F7D523
:1030D0000AE0FEF7E3FA001B022802D90320BDE84C
:1030E000F09F28688001F4D40020F8E70120F6E77B
:1030F000024A136883430B4313607047040400586B
:10310000401EB0F1807F10B501D3012010BD4FF0FB
:10311000E02460610F21601703F0EFFB0020A06145
:1031200007202061002010BD7047704770470000E5
:1031300030B590F83C20012A3AD0012280F83C209A
:10314000CA6800248B6822F440721A4D1A434B68F7
:1031500022F480621A430B6822F400621A430B695E
:1031600022F480521A434B6922F400521A438B6AAC
:1031700022F480421A430B8B22F4702242EA03426B
:103180000368AB4202D00C4DAB420CD18D8C22F4C3
:10319000700242EA0552CD6922F08072096A2A4320
:1031A00022F000720A435A6480F83C40002030BD8F
:1031B000022030BD000001400004014070B590F8CD
:1031C0003C20012A24D0012580F83C50022280F8BE
:1031D0003D2003685A689E680E4CA34202D00E4CF4
:1031E000A34203D122F470044A68224322F07004FF
:1031F0000A68896822435A6026F0800421430268E5
:10320000916080F83D50002180F83C10084670BD68
:10321000022070BD000001400004014010B5040010
:1032200003D094F83D0010B107E0012010BD00204C
:1032300084F83C00204600F00DF8022084F83D00A0
:103240002068211D02F0E0F8012084F83D000020F4
:1032500010BD0000F0B587B0044614216846FDF7A4
:1032600081F8414A20684149904207D1086840F0FE
:1032700001000860086800F001000BE03B4B3C4A8D
:10328000083B904209D1186840F0020018601868A5
:1032900000F00200059007B0F0BD344A0025354F1C
:1032A0000224103A0126B84220D1186840F00400E8
:1032B0001860186800F004000590106840F00800DD
:1032C00010601068694600F0080005904FF4404017
:1032D0008DE851002848CDE90354FEF7DFF80122BC
:1032E0001E201146FEF734FB1E2023E0234FB84278
:1032F00023D1086840F002000860086800F002006E
:103300000590106840F0040010601068694600F0F5
:10331000040005904FF470708DE851000320CDE952
:1033200003501748FEF7BAF801222E201146FEF787
:103330000FFB2E20FEF7FEFAADE7124A904207D1AE
:10334000186840F040001860186800F04000A1E7DD
:103350000D4A90429FD1086840F4803008600868A8
:1033600000F4803096E7000000000140F04402586D
:103370000004004000080040000C02580004014016
:1033800000080258001800400040014070B5044693
:1033900090F83C00012815D0012584F83C5002200B
:1033A00084F83D0020688268354B1A4022F47F4241
:1033B000826008687028024628D010DC10F00F0FD9
:1033C00003D04BE04FF0020070BD4FEA20100728F9
:1033D00044D2DFE800F05151515149323A00B0F186
:1033E000101F49D009DCB0F5805F37D0B0F5005F21
:1033F00017D0B0F5801F31D13EE02038B0F58010F5
:103400003AD0102838D0202828D135E04A682068E2
:10341000D1E9021302F065F82068816841F0770174
:1034200009E04A682068D1E9021302F05AF82068DE
:10343000816841F48041816010E0CA684968206871
:1034400002F0E0F92068502106E0CA684968206867
:1034500002F02AFA2068602102F04EF884F83D500C
:10346000002084F83C0070BDCA684968206802F0FA
:10347000C9F920684021EFE720681146ECE7000019
:1034800088FFCEFF2DE9F05FB74A012701680024CD
:10349000B64E4FF47A7891420FD1007F4FF4FA7B09
:1034A000B34D41F28939012841F2883A06D0022809
:1034B00054D0042872D0082871D040E1707810B13F
:1034C000012824D03BE1AA48002100F04EFCF08303
:1034D0002868016A21F00A0101622868016A41F046
:1034E00002010162A248002100F0EEF97770B08B72
:1034F00020B1F18B814203D9081A04E0B48203E0C1
:10350000091A01EB0900B082F08BB08317E19848EB
:10351000002100F02AFC30842868016A21F00A01A9
:1035200001622868016A01620021914800F0CCF92B
:10353000308CF18B884204D2A0EB010101EB0A0030
:1035400009E002D9A0EB010005E0B089584501D996
:10355000404600E00020B0817470F0E0B07810B117
:10356000012826D0EBE08248042100F0FEFBB08465
:103570002868016A21F0A00101622868016A41F00F
:10358000200101627A48042100F09EF9B770708C26
:1035900030B1B18C814205D9081A06E030E07FE0F5
:1035A000F48203E0091A01EB0900F082B08C708408
:1035B000C5E06F48042100F0D8FBF0842868016A58
:1035C00021F0A00101622868016A016204216848B3
:1035D00000F07AF9F08CB18C884204D2A0EB0101A2
:1035E00001EB0A0009E002D9A0EB010005E0F08937
:1035F000584501D9404600E00020F081B4709EE0BB
:10360000F07810B1012824D099E05948082100F041
:10361000ACFB70852868016A21F42061016228688A
:10362000016A41F4007101625148082100F04CF92F
:10363000F770308D20B1718D814203D9081A04E0F2
:10364000348303E0091A01EB09003083708D308563
:1036500075E04748082100F088FBB0852868016ABA
:1036600021F4206101622868016A01620821404852
:1036700000F02AF9B08D718D884204D2A0EB0101CF
:1036800001EB0A0009E002D9A0EB010005E0308A55
:10369000584501D9404600E000203082F4704EE0E9
:1036A000307910B1012824D049E031480C2100F0D4
:1036B0005CFB30862868016A21F420410162286899
:1036C000016A41F40051016229480C2100F0FCF824
:1036D0003771F08D20B1318E814203D9081A04E090
:1036E000748303E0091A01EB09007083308EF085C2
:1036F00025E01F480C2100F038FB70862868016A1D
:1037000021F4204101622868016A01620C211848F5
:1037100000F0DAF8708E318E884204D2A0EB0101FD
:1037200001EB0A0009E002D9A0EB010005E0708A74
:10373000584501D9404600E00020708234714FF4B2
:10374000FA61308A884202D13770BDE8F09FB089B3
:10375000404501D1022002E0884202D103203070AE
:10376000F3E73470F1E7000000040140000000209E
:10377000D00300202DE9F041044690F83C000D46AE
:1037800001283CD0012684F83C60022084F83D00EA
:10379000A2B3042A45D02068082A54D0D5E90027CE
:1037A000E968036A23F480530362D0F81CC0036AFB
:1037B0002CF4407C4CEA07274FF6FF7C27F4704737
:1037C0000CEA01313943C1614FF4204723F420430F
:1037D00007EA02321A4302622068C16921F440619B
:1037E000C1612068C169AA6841EA0221C16184F807
:1037F0003D60002084F83C00BDE8F08101E002203B
:10380000FAE7EB682068D5E9001202F00DF82068AD
:10381000816921F00C01816120688169AA681143E6
:103820000FE0EB682068D5E9001202F04FF820683D
:10383000816921F44061816120688169AA6841EA57
:1038400002218161D3E7D5E9002C2F7B016A21F4A5
:1038500080710162C169036A21F0030141EA0C0130
:1038600021F0F00C39074FF4206723F4206307EAB6
:1038700002221A434CEA1161C16102622068C169E7
:1038800021F00C01C1612068C169AA681143ADE74C
:1038900010B5040003D094F83D0010B107E00120FA
:1038A00010BD002084F83C00204600F00CF80220F7
:1038B00084F83D002068211D01F0A6FD012084F858
:1038C0003D00002010BD704710B50268044631B1BC
:1038D000042908D008291DD00C2908D11EE0D06881
:1038E00040F0020002E0D06840F00400D0602068A0
:1038F000012201F0E9FD216888680A4A1040062883
:1039000006D0B0F5803F03D0086840F001000860A1
:10391000002010BDD06840F00800E7E7D06840F014
:103920001000E3E70700010070B504460068016974
:103930004FF00005C943890715D4C168C9438907F9
:1039400011D4E91E01610120207720688069800779
:10395000204602D0FFF796FD04E000F01DF9204656
:1039600000F0CBF9257720680169C943490717D4CE
:10397000C168C943490713D46FF0040101610220F3
:1039800020772068806910F4407F204602D0FFF73E
:1039900079FD04E000F000F9204600F0AEF925774B
:1039A00020680169C943090716D4C168C9430907DA
:1039B00012D46FF008010161042020772068C069EB
:1039C0008007204602D0FFF75DFD04E000F0E4F838
:1039D000204600F092F9257720680169C943C9069D
:1039E00017D4C168C943C90613D46FF0100101612F
:1039F000082020772068C06910F4407F204602D05C
:103A0000FFF740FD04E000F0C7F8204600F075F92C
:103A1000257720680169C943C90708D1C168C9432E
:103A2000C90704D1891E0161204600F09DF9206874
:103A30000169C943090609D4C168C943090605D407
:103A40006FF0800101612046FFF76FFB206801697C
:103A5000C943C90509D4C168C943090605D46FF42F
:103A6000807101612046FFF75FFB20680169C9434F
:103A7000490609D4C168C943490605D46FF040011D
:103A80000161204600F086F920680169C943890672
:103A90000BD4C168C943890607D46FF020010161C6
:103AA0002046BDE87040FFF741BB70BD70B586B0E1
:103AB000044614216846FCF755FC2F480023216872
:103AC00002242E4A2E4D81420ED1106840F0100083
:103AD0001060106800F0100005904FF4D440009082
:103AE0000120CDE9014341E0264E2748B1420DD1E6
:103AF000116841F002011160116801F002010591A5
:103B000033211CE0FDF7CAFC06B070BD1F4EB14268
:103B100009D1116841F002011160116801F0020140
:103B20000591C0210BE01A4EB1420FD1116841F04E
:103B300002011160116801F0020105913114009138
:103B4000CDE90143CDE903346946DBE71148814201
:103B5000DAD1106840F010001060106800F010001A
:103B60000590602000900420CDE901436946CDE92D
:103B700003302846C6E7000000000140E044025838
:103B800000100258000400400004025800080040E1
:103B90000018004000400140704770B5044690F89E
:103BA0003C000D4601280ED0012684F83C6002201E
:103BB00084F83D000C2A45D007DC5AB1042A1BD0FA
:103BC000082A78D12CE0022070BD102A4ED0142A89
:103BD00071D15DE0206801F099FC2068816941F0B5
:103BE000080181612068816921F0040181612068F8
:103BF00081692A69114311E0206801F0D5FC206831
:103C0000816941F4006181612068816921F48061EA
:103C10008161206881692A6941EA022181614AE063
:103C2000206801F009FD2068C16941F00801C16107
:103C30002068C16921F00401C1612068C1692A6955
:103C4000114311E0206801F03BFD2068C16941F497
:103C50000061C1612068C16921F48061C16120688F
:103C6000C1692A6941EA0221C16124E0206801F0AA
:103C70005DFD2068416D41F0080141652068416D9E
:103C800021F0040141652068416D2A69114311E06A
:103C9000206801F081FD2068416D41F400614165BB
:103CA0002068416D21F4806141652068416D2A6979
:103CB00041EA0221416584F83D60002084F83C001F
:103CC00070BD10B5040003D094F83D0010B107E0BA
:103CD000012010BD002084F83C00204600F00CF8C4
:103CE000022084F83D002068211D01F08DFB012099
:103CF00084F83D00002010BD7047704710B50122C8
:103D00000446006801F0E0FB1148216881420BD0B5
:103D10001048814208D01048814205D00F488142A6
:103D200002D00F48814203D1486C40F400404864FF
:103D3000216888680B4A1040062806D0B0F5803FFD
:103D400003D0086840F001000860002010BD0000AA
:103D500000000140000401400040014000440140D7
:103D6000004801400700010070470246002041B1B1
:103D7000042909D008290AD00C2901D11068006C47
:103D800070471068406B70471068806B7047106810
:103D9000C06B7047704790F87C10012918D0012142
:103DA00080F87C102421C0F8801050F8601B0A684D
:103DB0000B6823F001030B6022F0005100224260E7
:103DC00050F8603C1960202101620277104670476C
:103DD00002207047704770B5044690F87C000128B7
:103DE0001DD0012084F87C002420C4F880002068C5
:103DF0000568026822F0010202602068826822F0F1
:103E000060620A438260204601F0A2FD20680560DE
:103E10002020C4F88000002084F87C0070BD0220BF
:103E200070BD70B5044690F87C0001281DD00120BB
:103E300084F87C002420C4F88000206805680268AB
:103E400022F0010202602068826822F060420A4388
:103E50008260204601F07CFD206805602020C4F8C7
:103E60008000002084F87C0070BD022070BD704787
:103E700070477047D0F88010D0F88400084370472E
:103E80002DE9F04103680446D86919689A6840F63C
:103E90000F0528424FF0000509D186067ED501F0B6
:103EA000200602F080573E4378D0E16E9EE0624EDD
:103EB000624F16400F40374370D0C70709D0CF0577
:103EC00007D501271F62D4F8883043F00103C4F8F6
:103ED000883083070AD5D30708D0276802233B62BE
:103EE000D4F8883043F00403C4F8883043070AD577
:103EF000D30708D0276804233B62D4F8883043F006
:103F00000203C4F8883003070CD501F020033343C3
:103F100008D0266808233362D4F8883043F00803B9
:103F2000C4F8883003050BD54B0109D526684FF43A
:103F300000633362D4F8883043F02003C4F888303B
:103F4000D4F88830002B34D0800609D501F0200049
:103F500002F08051084303D0E16E09B12046884742
:103F6000D4F8880021688968490602D410F0280F27
:103F700021D0204601F0BCFD20688168490615D596
:103F8000816821F040018160A06F78B12C49016502
:103F9000A06FFDF739F800280BD000E011E0A06F0A
:103FA000016D00E02046BDE8F04108472046FFF7DC
:103FB00060FFBDE8F0812046FFF75BFFC4F8885042
:103FC000F7E7C60209D5560207D54FF480101862EC
:103FD0002046BDE8F041FFF74BBF060609D501F0CA
:103FE000800602F40002164303D0216F0029D9D1C4
:103FF000DFE742060DD54A060BD51968204621F0A9
:10400000400119602021C4F88010256700F00CFAE7
:10401000CFE7020206D54A0004D52046BDE8F041AC
:10402000FFF725BFC001C4D50029C2DA2046BDE88C
:10403000F041FFF7CFBE0000010000102001000496
:10404000DB5A000810B5040003D0D4F8800010B18A
:1040500007E0012010BD002084F87C00204600F01D
:1040600027F82420C4F880002068016821F00101AD
:104070000160204601F04EFE0128EBD0A06A10B18D
:10408000204601F097FC2068416821F4904141608E
:104090002068816821F02A0181602068016841F070
:1040A000010101602046BDE8104001F0E7BC0000BE
:1040B00070B586B0044614216846FCF753F92A49C6
:1040C0000023284E012520680839274A0224B042DF
:1040D00020D1106840F400201060106800F4002027
:1040E0000590086840F0010008600868694600F023
:1040F0000100059003208DE831000820CDE9033050
:104100001A48FDF7CBF9012234201146FDF720FCB7
:10411000342023E0164EB04222D1106840F48020B3
:104120001060106800F480200590086840F00200DC
:1041300008600868694600F0020005904FF440608E
:104140008DE831000720CDE903300A48FDF7A6F9D4
:10415000012227201146FDF7FBFB2720FDF7EAFB94
:1041600006B070BD004C0040E84402580000025800
:10417000004800400004025870B5D0F88430202B6D
:104180006DD1B9B1B2B190F87C30012B67D0012369
:1041900080F87C308165A0F85C20A0F85E200023C8
:1041A000C366FF2581684FF48054A14207D101699D
:1041B00011B11CE0012070BD40F2FF111DE07F260F
:1041C00099B1B1F1805F15D0A0F86030C0F88830A7
:1041D0002221C0F8841001688D6845F001058D60CA
:1041E000416EB1F1005F0ED027E0016941B9A0F83E
:1041F0006050EBE7016919B13F21A0F86010E5E7D5
:10420000A0F86060E2E7B0F86810914215D88168C4
:10421000A14201D1016971B11249C16680F87C30B7
:1042200001680A6842F480720A600068816841F09F
:10423000805181600FE00C49EFE78168A14201D114
:10424000016951B10949C16680F87C300068016894
:1042500041F490710160002070BD0549F3E7022030
:1042600070BD0000755C0008755B0008155C0008F7
:10427000155B00082DE9F041006800243549364DF2
:10428000884242D1298908044ED40123334A681D4B
:10429000007851B101290DD0C1F30D03491CD05450
:1042A00088B2288120280CD00EE055283CD110700F
:1042B0002B8109E0512801D02C8105E050700220AB
:1042C00001E048F220002881288900042CD5244FE1
:1042D0004FF48056002231463846FDF7D3F91F4986
:1042E00021224FF47A73A1F5A07000F03FF81D4829
:1042F0000068C169C9434906FBD4314638462C8160
:104300000122BDE8F041FDF7BDB9174988420BD144
:104310006889010408D41049420401F106010978B2
:1043200007D50A2902D06C81BDE8F08140F4004035
:104330000EE00D290AD0094BC0F30D02401C2133B9
:1043400080B2132899546881EDD8EDE740F480409D
:104350006881E9E70048004000000020D005002007
:104360000008025890040020004C00402DE9F8435A
:104370000446D0F880001F4615460E46202851D12D
:10438000DEB1D5B194F87C0001284BD0012084F82F
:104390007C004FF00008C4F888802120C4F8800019
:1043A0001834FDF77BF9A5878146E58754F8100C92
:1043B000183CB0F5805F03D004E00120BDE8F8832D
:1043C000206910B13546002610E000250EE080215E
:1043D000204602F0D3F9B8B9C5B115F8010B216830
:1043E0008862B4F85600401EA4F85600B4F856008F
:1043F0004B464FF0000200970028E8D14FF04001F3
:10440000204602F0BBF930B10320D7E736F8020BA3
:10441000C0F30800E3E72020C4F88000002084F8FF
:104420007C80CBE70220C9E77047FEE710B51F4C40
:10443000092094ED090AFCF7BFF8012094ED010A68
:10444000FCF7BAF8052094ED050AFCF7B5F8002052
:1044500094ED000AFCF7B0F8042094ED040AFCF790
:10446000ABF8082094ED080AFCF7A6F8022094EDBA
:10447000020AFCF7A1F8062094ED060AFCF79CF866
:104480000A2094ED0A0AFCF797F8032094ED030A3A
:10449000FCF792F8072094ED070AFCF78DF894EDED
:1044A0000B0ABDE810400B20FCF786B8280100205D
:1044B0008068C0F3C00070478068C0F30000704798
:1044C0008068C0F3800070478068C0F38000704748
:1044D000042303EAD153184410B543690724C1F3F8
:1044E00004518C408A40A3431343436110BD000034
:1044F00030B58BB0002468461C21079408940994B9
:10450000FBF730FF1A480425184901604FF4802159
:10451000C0E90114C0E903450475012144758161B6
:10452000047744628462C4620463446380F8384060
:10453000FCF7F2FB00B1FEE70D4807A90794FCF772
:1045400071F900B1FEE70B48694600900620CDE9FD
:10455000010440F2FF700594CDE903050448FCF71F
:10456000EDF9002800D0FEE70BB030BD002002407E
:104570005C0100200040C03A70B588B01C2168463C
:10458000FBF7F0FE174800241549042501260160B9
:104590004FF48021C0E90114C0E903450475447556
:1045A0008661047744628462C4620463446380F871
:1045B0003840FCF7B1FB00B1FEE706200096CDE9DC
:1045C000010440F2FF700594CDE9030505486946F2
:1045D000FCF7B4F9002800D0FEE708B070BD000079
:1045E00000600258C001002015480223134901222F
:1045F00010B50160891581600021C16001744174AA
:1046000081744261C0E90623C0E908328262C26255
:10461000C0E90C2104228163C163C0E91012C0E922
:104620001212C0E914128165C1650166C0E9191250
:10463000FCF7DEFD002800D0FEE710BD00A0004022
:104640002402002030B587B014216846FBF78AFEAB
:104650002148016841F010010160016801F010017A
:104660000591016841F080010160016801F080015D
:104670000591016841F004010160016801F0040145
:104680000591016841F001010160016801F001013B
:104690000591016841F002010160016801F0020129
:1046A0000591016841F008010160006801220B4D8D
:1046B000140300F00800214605902846FCF7E2FFAD
:1046C00001210020CDE90041CDE9021069462846CC
:1046D000FCF7E4FE07B030BDE04402580008025881
:1046E000114801220F4910B50160104941600021B5
:1046F000C0E90212016141618161C1610162FDF79E
:1047000027F800B1FEE708480021FCF7CDFF00B113
:10471000FEE705480021FCF7F2FF002800D0FEE785
:1047200010BD000000540040C4020020FFECC01087
:1047300010B58CB0002468461C2107940894099495
:104740000A94FBF70FFE1848164901606321C0E97F
:10475000011440F2E731C0E903148461FEF75EFD05
:1047600000B1FEE74FF4805007900F4807A9FEF70D
:104770000DFE00B1FEE70C48FFF7A3FA00B1FEE71B
:1047800060206946CDE900040748002202940494A1
:10479000FFF703FA00B1FEE70348FFF787F90CB013
:1047A00010BD0000001800401004002010B59AB0A1
:1047B00000241C2112940BA813941494159416949D
:1047C00017941894FBF7CEFD2C216846FBF7CAFD21
:1047D000294828490160C721C0E9011442F20F713C
:1047E000C0E9031444618461FEF718FD00B1FEE7DF
:1047F0004FF480501290204812A9FEF7C7FD00B177
:10480000FEE71D48FFF75DFA00B1FEE71A4816A95A
:1048100016941894FEF7D2FC00B1FEE76020CDE9B3
:104820000B04154800220BA90D940E940F941094BC
:104830001194FFF7B2F900B1FEE70F4804220BA96B
:10484000FFF7ABF900B1FEE74FF40050009401947C
:1048500069460294CDE904400748039406940A94FB
:10486000FEF766FC00B1FEE70348FFF71FF91AB038
:1048700010BD0000004001405004002010B59AB067
:10488000002468461C2117941894159416941294C9
:1048900013941494FBF766FD2C2107A8FBF762FD27
:1048A000324831490160C721C0E9011442F20F7159
:1048B000C0E9031444618461FEF7B0FC00B1FEE777
:1048C0004FF480501590294815A9FEF75FFD00B1FF
:1048D000FEE72648FFF7F5F900B1FEE7234812A9E5
:1048E000129413941494FEF769FC00B1FEE7602063
:1048F0006946CDE900041D48002202940394049403
:1049000005940694FFF749F900B1FEE71748042221
:104910006946FFF742F900B1FEE7144808226946EC
:10492000FFF73BF900B1FEE710480C226946FFF79C
:1049300034F900B1FEE74FF400500794089407A93A
:1049400009940A94CDE90B4000030D94109411943E
:10495000CDE90E400548FEF7EBFB00B1FEE703484A
:10496000FFF7A4F81AB010BD0000014010030020AA
:1049700010B58EB0002468461C2107940894099451
:104980000A940B940C940D94FBF7ECFC26482549F3
:104990000160C721C0E9011442F20F71C0E903149C
:1049A0008461FEF73BFC00B1FEE74FF480500790B6
:1049B0001D4807A9FEF7EAFC00B1FEE71A48FFF719
:1049C00080F900B1FEE718480BA90B940D94FEF78F
:1049D000F5FB00B1FEE760206946CDE9000412480E
:1049E000002202940494FFF7D8F800B1FEE70E48C5
:1049F00004226946FFF7D1F800B1FEE70A48082211
:104A00006946FFF7CAF800B1FEE707480C2269467D
:104A1000FFF7C3F800B1FEE70348FFF747F80EB011
:104A200010BD0000000400405003002010B592B0FB
:104A3000002468461C210B940C940D940E940F9442
:104A400010941194FBF78EFC2D482C490794089480
:104A500009940A940160C721C0E9011442F20F7160
:104A6000C0E903148461FEF7D9FB00B1FEE74FF4FF
:104A700080500B9022480BA9FEF788FC00B1FEE79E
:104A80001F48FFF71EF900B1FEE71D48FEF700FFC3
:104A900000B1FEE71A480FA90F941194FEF78EFBA0
:104AA00000B1FEE760206946CDE900041448002209
:104AB00002940494FFF771F800B1FEE71048042255
:104AC0006946FFF76AF800B1FEE70120082207A94E
:104AD000CDE907400A4809940A94FEF74BFE00B15D
:104AE000FEE707480C2207A9FEF744FE00B1FEE7E7
:104AF0000348FEF7DBFF12B010BD000000080040C5
:104B00009003002010B58CB02C4800242A49009452
:104B100001940294039404940594069407940894D1
:104B200009940A9401606321C0E9011441F28731BC
:104B3000C0E9031444618461FEF770FB00B1FEE735
:104B40004FF4805000901D486946FEF71FFC00B1ED
:104B5000FEE71A48FEF79CFE00B1FEE7174804A9DD
:104B6000049405940694FEF729FB00B1FEE70120AA
:104B7000002207A9CDE90740104809940A94FEF7DE
:104B8000F9FD00B1FEE70D48042207A9FEF7F2FD8A
:104B900000B1FEE70948082207A9FEF7EBFD00B1C6
:104BA000FEE706480C2207A9FEF7E4FD002800D026
:104BB000FEE70CB010BD000000040140D00300204F
:104BC00017480C22154910B501604FF41651416089
:104BD00000218160C160C0E904128161C16101628C
:104BE00041628162FFF72EFA00B1FEE70C48002116
:104BF000FFF717F900B1FEE709480021FFF7EBF8CE
:104C000000B1FEE70648FFF7C6F800B1FEE7BDE8D1
:104C10001040044901220248FFF7AEBA004C0040A0
:104C2000900400200600002017480C22154910B5FA
:104C300001604FF4E131416000218160C160C0E951
:104C400004128161C161016241628162FFF7FAF978
:104C500000B1FEE70C480021FFF7E3F800B1FEE7E2
:104C600009480021FFF7B7F800B1FEE70648FFF753
:104C700092F800B1FEE7BDE8104004490122024865
:104C8000FFF77ABA004800401C050020050000200C
:104C9000FEE77047704700002DE9F047DFF8088114
:104CA00004460E464FF00009D8F80000C0438007C4
:104CB00009D03D4D283D286820F080602860FCF731
:104CC000EDFC074607E00120BDE8F087FCF7E6FCB5
:104CD000C01B022860D828680001F7D4D8F800105B
:104CE000226821F47C3141EA0231C8F80010207AB0
:104CF0004FF4FE02A1884002491EA0F5007080B268
:104D0000C1F308010843A189491E02EA0141084391
:104D1000217C1202491E02EA016108432249103136
:104D200008602148001D0168626921F0C00111433B
:104D300001600168A26921F020011143016001684E
:104D400021F010010160184914310A684FF6F87318
:104D50009A43E36942EAC3020A60016841F0100124
:104D600001606EB10168012E0ED041F400110160A6
:104D7000286840F080602860FCF790FC04460DE055
:104D8000016841F40021F2E741F48011EFE7FCF7FC
:104D900085FC001B022801D9032095E72868000143
:104DA000F5D5484690E70000284402582DE9F04721
:104DB000DFF8088104460E464FF00009D8F80000DD
:104DC000C043800709D03D4D283D286820F0805021
:104DD0002860FCF763FC074607E00120BDE8F08788
:104DE000FCF75CFCC01B022860D828688000F7D460
:104DF000D8F80010228821F07C7141EA0251C8F8ED
:104E00000010207A4FF4FE02A1884002491EA0F54E
:104E1000007080B2C1F308010843A189491E02EA6B
:104E200001410843217C1202491E02EA0161084344
:104E30002249183108602148001D0168626921F487
:104E40004061114301600168A26921F400711143BE
:104E50000160016821F48071016018491C310A6801
:104E60004FF6F8739A43E36942EAC3020A600168A5
:104E700041F4807101606EB10168012E0ED041F0E5
:104E800080710160286840F080502860FCF706FCC3
:104E900004460DE0016841F48001F2E741F40001AD
:104EA000EFE7FCF7FBFB001B022801D9032095E785
:104EB00028688000F5D5484690E70000284402584D
:104EC00010B5B3EE0E1AF2EE040A2DED068BB2EE1B
:104ED0000E0A4FF4967002F06FF9DFED309ABBEED8
:104EE0000E8A4FF49670B0EE481AF0EE690AB0EEF2
:104EF000690A02F061F94FF4C874B3EE0E1AF2EECB
:104F0000040AB2EE0E0A204602F056F9B0EE481A34
:104F1000F0EE690AB0EE690A204602F04DF9B9EEEA
:104F2000049AF9EE0C8AF0EE490AB0EE680AB0EE87
:104F3000691A03F033F8BAEE0EAA6420B3EE0E1A23
:104F4000F2EE040AB0EE4A0A02F036F96420B0EE3E
:104F5000481AF0EE690AB0EE690A02F02DF9C8208D
:104F6000B3EE0E1AF2EE040AB0EE4A0A02F024F989
:104F7000C820B0EE481AF0EE690AB0EE690A02F0F5
:104F80001BF9F0EE490AB0EE680AB0EE691ABDEC02
:104F9000068BBDE8104003F001B8000000000000DF
:104FA00010B564202DED048BB3EE0E8ADFED329A3E
:104FB000B0EE481AF0EE480AB0EE690A02F0FCF8CA
:104FC000FBEE0E8A6420B0EE681AF0EE690AB0EECD
:104FD000690A02F0F1F8C820B0EE481AF0EE480A6B
:104FE000B0EE690A02F0E8F8C820B0EE681AF0EEF8
:104FF000690AB0EE690A02F0DFF8BAEE0E9AB0EE76
:10500000691AF0EE490AB0EE690A02F09BFD4FF40E
:105010009674B0EE481AF0EE480AB0EE690A2046DF
:1050200002F0CAF8B0EE681AF0EE690AB0EE690A4A
:10503000204602F0C1F84FF4C874B0EE481AF0EE02
:10504000480AB0EE690A204602F0B6F8B0EE681AD7
:10505000F0EE690AB0EE690A204602F0ADF8F0EE13
:10506000490AB0EE691AB0EE690ABDEC048BBDE8DE
:10507000104002F067BD00000000000010B5642081
:10508000B3EE0E1A2DED068BF2EE040AB3EE000A13
:1050900002F092F8DFED309ABBEE0E8A6420B0EE9B
:1050A000481AF0EE690AB0EE690A02F085F8C820E5
:1050B000B3EE0E1AF2EE040AB3EE000A02F07CF828
:1050C000C820B0EE481AF0EE690AB0EE690A02F0A4
:1050D00073F8B9EE049AFAEE008AF0EE490AB0EEDF
:1050E000680AB0EE691A03F093FABBEE00AA4FF417
:1050F0009674B3EE0E1AF2EE040AB0EE4A0A204697
:1051000002F05AF8B0EE481AF0EE690AB0EE690AF9
:10511000204602F051F84FF4C874B3EE0E1AF2EEC6
:10512000040AB0EE4A0A204602F046F8B0EE481AE9
:10513000F0EE690AB0EE690A204602F03DF8F0EEA2
:10514000490AB0EE680AB0EE691ABDEC068BBDE8FC
:10515000104003F05DBA000000000000704700003E
:1051600010B5002104460246244801F07EFB234886
:105170000421224601F079FB20480821224601F053
:1051800074FB1E480C21224601F06FFB1B480021D6
:105190002246403001F069FB184804212246403085
:1051A00001F063FB154808212246403001F05DFB09
:1051B00012480C212246403001F057FB0F480021D5
:1051C0002246803001F051FB0C48042122468030F9
:1051D00001F04BFB0A480021224601F046FB08483B
:1051E00000212246403001F040FB054804212246C0
:1051F000BDE81040403001F038BB00001003002033
:10520000100400201848B2EE040A80ED080AB3EE3C
:105210000E0A80ED040A9FED150A80ED000AB9EE32
:105220000C0A80ED0A0A9FED120A80ED060A9FED36
:10523000110A80ED020ABBEE040A80ED090AB3EE02
:10524000090A80ED050A9FED0C0A80ED010AB1EE16
:105250000C0A80ED0B0AB3EE070A80ED070A9FEDFA
:10526000070A80ED030A704728010020000034423D
:105270000000604200005C42000060C2000064C2A6
:10528000FCF7F6BA70B5CCB04C212FA8FBF76AF842
:10529000202142A8FBF766F8BC216846FBF762F8BC
:1052A0000220FCF787FB2D480024016821F0010152
:1052B000016000682A48016841F4404101600168CA
:1052C00001F440414A9101688904FCD525480168F0
:1052D00021F00301891C016001202F9005260004A4
:1052E000309002253895A020CDE93956CDE93B050F
:1052F00008203D953E95CDE93F042FA84194FDF748
:10530000ABFC00B1FEE73F2042900320CDE943040F
:105310000920CDE945040121479442A848944994C5
:10532000FDF79CFA00B1FEE70F48CDE900050C201F
:105330000290C020CDE90365CDE905502020CDE9DC
:105340000704C00520941D9428941B906846FCF720
:1053500027FE002800D0FEE74CB070BD2C0400589A
:1053600018480258284402580A8008001C4801685E
:1053700041F4700101601B49086840F001000860B9
:10538000184A0020103210600A68174B1A400A6051
:10539000144A18321060121D1060121D1060114A5C
:1053A00028321060121D1060121D1060121D106056
:1053B000121D1060121D1060121D1060121D106071
:1053C0000A6822F480220A600649603108600120E0
:1053D0000649C1F80801C0060149803908607047D4
:1053E00088ED00E0004402587FEDF6EA00800051AD
:1053F0000148FEF799BA0000900300200148FEF72B
:1054000093BA0000D00300202DE9F04702684FF066
:10541000804A254C254D264EA042264F264B09D0CA
:10542000504507D0A84205D0B04203D0B84201D0C1
:10543000984204D122F0700C4A6842EA0C02DFF86C
:105440007CC0DFF87C80A042DFF878900FD0504518
:105450000DD0A8420BD0B04209D0B84207D0984234
:1054600005D0604503D0404501D0484503D122F422
:105470004075CA682A434D6922F080022A430260BF
:105480008A68C2620A688262A04207D0984205D048
:10549000604503D0404501D0484501D10969016309
:1054A00001214161BDE8F087000001400004004097
:1054B00000080040000C0040000401400040014092
:1054C0000044014000480140012301F01F0110B5D4
:1054D000046A8B409C430462036A8A40134303625C
:1054E00010BD10B5846842EA03220A4324F47F44C5
:1054F0002243826010BD00008268034B1A400A43B9
:1055000042F00701816070478FFFCFFF2DE9F04324
:10551000026A22F001020262056A4268836925F08C
:1055200002051B4C1C4E23400C6823F003031B4F49
:105530001C438B68DFF868C02B43164DDFF864907E
:10554000A84207D0B04205D0B84203D0604501D090
:10555000484506D123F00808CB6843EA080323F046
:105560000403A84207D0B04205D0B84203D060453A
:1055700001D0484505D14D6922F4407215438A692E
:105580002A4342608461496841630362BDE8F08355
:105590008FFFFEFF00000140000401400040014079
:1055A0000044014000480140F0B5026A22F01002B8
:1055B0000262056A42688369194C1B4E23400C68DD
:1055C00023F4407343EA042425F020038D6843EA62
:1055D0000513144DA84201D0B04206D1CF6823F084
:1055E000800343EA071323F04003A8420AD0B042E5
:1055F00008D00E4DA84205D00D4DA84202D00D4D49
:10560000A84207D14D6922F4406242EA85028D69C1
:1056100042EA850242608461496881630362F0BDA9
:10562000FF8FFFFE000001400004014000400140E8
:105630000044014000480140F0B5026A22F4807243
:105640000262026A4368C46922F40072184E24F0B0
:1056500073050C682C438D6842EA0522134DA8425D
:1056600001D0B04206D1CF6822F4006242EA07229C
:1056700022F48062A8420AD0B04208D00D4DA84260
:1056800005D00D4DA84202D00C4DA84207D14D695E
:1056900023F4405343EA05138D6943EA051343603D
:1056A000C4614968C1630262F0BD000000000140AE
:1056B0000004014000400140004401400048014016
:1056C00030B5026A22F480520262036A4268C469F9
:1056D00023F400530D6824F4E64444EA05248D685D
:1056E00043EA05330C4DA8420BD00C4DA84208D01C
:1056F0000B4DA84205D00B4DA84202D00A4DA8423E
:1057000004D14D6922F4804242EA85124260C461AC
:1057100049680164036230BD00000140000401409B
:1057200000400140004401400048014030B5026A99
:1057300022F480320262046A4268436D24F4003429
:1057400023F070050B682B430D8944EA05440D4D89
:10575000A8420BD00C4DA84208D00C4DA84205D051
:105760000B4DA84202D00B4DA84204D14D6922F442
:10577000803242EA052242604365496881650462DD
:1057800030BD000000000140000401400040014025
:10579000004401400048014030B5026A22F4801202
:1057A0000262046A4268436D24F400140D6823F415
:1057B000E04343EA05230D8944EA05540C4DA84211
:1057C0000BD00C4DA84208D00B4DA84205D00B4D74
:1057D000A84202D00A4DA84204D14D6922F40032F9
:1057E00042EA8522426043654968C165046230BD72
:1057F000000001400004014000400140004401401D
:105800000048014010B5046A036A23F001030362F3
:10581000836923F0F00343EA0213836124F00A0250
:105820000A43026210BD000070B5046A24F001044E
:1058300004628469056A154EB04214D0B0F1804FFD
:1058400011D0134EB0420ED0124EB0420BD0124EB9
:10585000B04208D0114EB04205D0114EB04202D035
:10586000104EB04203D124F00304144301E044F08D
:1058700001041A0724F0F00425F00A0301F00A01DC
:10588000194344EA12628261016270BD0000014066
:105890000004004000080040000C004000040140EB
:1058A000001800400040014010B5036A23F01003C7
:1058B00003628469036A24F4704423F0A00344EA79
:1058C0000232826143EA0111016210BD30B5046AFF
:1058D00024F0100404628569046A25F4407545EAE1
:1058E000022222F470454FF6FF7202EA033224F0DE
:1058F000A003A0242A43826104EA01111943016232
:1059000030BD000070B50F48FEF7BAFA0E4D002406
:105910000C48FEF7B5FA02E0641CAC4204D8094812
:10592000FEF7A8FA2028F7D1002402E0641CAC425C
:1059300006D8064901220348FEF71EFC0028F5D1CF
:1059400070BD000090040020FFFF01000600002051
:105950003FB514A1D1E90021CDE9002113A1D1E97E
:105960000021CDE90221416EB9B1026891689268C7
:10597000C1F34261520F1DF80240E50002ACA25C87
:10598000B5FBF2F2A0F86A201DF80120615CD2009C
:10599000B2FBF1F1A0F868103FBD0121A0F86A1038
:1059A000F8E70000010101030701000008040204F8
:1059B0000801010190F82810C90706D001684A685B
:1059C000C36A22F400321A434A6090F8281089070B
:1059D00006D501684A68036B22F480321A434A6094
:1059E00090F82810490706D501684A68436B22F4ED
:1059F00080221A434A6090F82810090706D50168EA
:105A00004A68836B22F400421A434A6090F82810D7
:105A1000C90606D501688A68C36B22F480521A430E
:105A20008A6090F82810890606D501688A68036C98
:105A300022F400521A438A6090F82810490611D5C2
:105A400001684A68436C22F480121A434A60416C30
:105A5000B1F5801F06D101684A68836C22F4C00248
:105A60001A434A6090F82810090606D501684A686A
:105A7000C06C22F4002202434A607047F8B500254A
:105A80000446C0F88850FBF709FE07462068006806
:105A90006FF07E46000708D500223B464FF4001108
:105AA0002046009600F06AFE60B920680068400752
:105AB0000AD500223B464FF480012046009600F0B4
:105AC0005DFE08B10320F8BD2020C4F88000C4F8B2
:105AD0008400002084F87C50F8BD10B5806B002154
